:1000000009C031C020C03EC01EC01DC062C01BC0A0
:100010001AC019C011241FBECFE9CDBF10E0A0E661
:10002000B0E0EEEDF3E002C005900D92A236B1070C
:10003000D9F720E0A2E6B0E001C01D92AF36B207CA
:10004000E1F71DD1CAC1DCCF97B19C7F97B997B1B9
:100050008370982B97B9379A369A3699FECF84B128
:1000600095B1379808951F920F920FB60F921124F1
:100070008F9381E0809367008F910F900FBE0F9058
:100080001F9018951F920F920FB60F9211242F9365
:100090008F939F9380916D0090916E000196909345
:1000A0006E0080936D0080916D0090916E0084369B
:1000B000924139F489B7846089BF10926E00109222
:1000C0006D009F918F912F910F900FBE0F901F90F9
:1000D00018951F920F920FB60F9211242F933F93F2
:1000E0004F935F936F937F938F939F93AF93BF9340
:1000F000EF93FF9389B78B7F89BF809169009091BF
:100100006A00A0916B00B0916C000196A11DB11D19
:100110008093690090936A00A0936B00B0936C0089
:100120008091620090916300A0916400B09165009D
:10013000892B8A2B8B2B81F58091680081111AC045
:100140008091690090916A00A0916B00B0916C0061
:100150000597A105B10581F08091690090916A0031
:10016000A0916B00B0916C0080379246A105B1055B
:1001700099F402C0109268008091690090916A0021
:10018000A0916B00B0916C0080936200909363002B
:10019000A0936400B09365004091620050916300A9
:1001A00060916400709165008091690090916A008F
:1001B000A0916B00B0916C00481759076A077B0744
:1001C00029F4C09A81E080936600C29A809162000F
:1001D00090916300A0916400B0916500892B8A2BF7
:1001E0008B2B39F120916000809162009091630027
:1001F000A0916400B09165004091690050916A003F
:1002000060916B0070916C00820F911DA11DB11D5A
:10021000481759076A077B0760F0C098C298109288
:1002200066001092620010926300109264001092B7
:1002300065006091690070916A0080916B009091F7
:100240006C0028E931E541E050E0A5D060936900F9
:1002500070936A0080936B0090936C00FF91EF9114
:10026000BF91AF919F918F917F916F915F914F91CE
:100270003F912F910F900FBE0F901F901895B89A35
:10028000C098B998C19A85B7826085BF8BB78064E2
:100290008BBF87B3877E87BB86B1876086B984B3FF
:1002A000886184BB12BE84E786BF89B7826089BF3C
:1002B00083B7816083BFBA9A85B7806285BF78941F
:1002C00080E090E0DC0188248A9423E0922EA12C27
:1002D000B12CC4E0D1E0C0906900D0906A00E090F9
:1002E0006B00F0906C008C159D05AE05BF05B1F15B
:1002F000C0906900D0906A00E0906B00F0906C00B4
:1003000080916700882331F0B19904C0D0936800D0
:100310001092670083E098DEBC0180E090E027E364
:1003200030E040E050E01ED0A501940134D0F894B4
:10033000DA01C9010596A11DB11D80936000789472
:1003400082E082DE20916600211108C0893292404D
:1003500020F088B38C2788BB01C0C2988895D7014C
:10036000C601B9CFEE27FF27AA27BB2708C0A20FD7
:10037000B31FE41FF51F220F331F441F551F96950F
:1003800087957795679598F37040A9F7009799F747
:10039000BD01CF010895A1E21A2EAA1BBB1BFD01CE
:1003A0000DC0AA1FBB1FEE1FFF1FA217B307E40754
:1003B000F50720F0A21BB30BE40BF50B661F771FAC
:1003C000881F991F1A9469F760957095809590958C
:0E03D0009B01AC01BD01CF010895F894FFCF51
:0203DE00050018
:00000001FF
