:1000000009C031C020C03EC01EC01DC062C01BC0A0
:100010001AC019C011241FBECFE9CDBF10E0A0E661
:10002000B0E0ECEDF3E002C005900D92A237B1070D
:10003000D9F720E0A2E7B0E001C01D92AF37B207C8
:10004000E1F71CD1C9C1DCCF97B19C7F97B997B1BB
:100050008370982B97B9379A369A3699FECF84B128
:1000600095B1379808951F920F920FB60F921124F1
:100070008F9381E0809377008F910F900FBE0F9048
:100080001F9018951F920F920FB60F9211242F9365
:100090008F939F9380917D0090917E000196909325
:1000A0007E0080937D0080917D0090917E0089315B
:1000B000924139F489B7846089BF10927E00109212
:1000C0007D009F918F912F910F900FBE0F901F90E9
:1000D00018951F920F920FB60F9211242F933F93F2
:1000E0004F935F936F937F938F939F93AF93BF9340
:1000F000EF93FF9389B78B7F89BF809179009091AF
:100100007A00A0917B00B0917C000196A11DB11DE9
:100110008093790090937A00A0937B00B0937C0049
:100120008091720090917300A0917400B09175005D
:10013000892B8A2B8B2B79F580917800811103C054
:10014000E1E6F0E003C01092780015C080E0E137EE
:10015000F80709F141915191619171918091790074
:1001600090917A00A0917B00B0917C0048175907CC
:100170006A077B0759F78091790090917A00A091E6
:100180007B00B0917C008093720090937300A093E9
:100190007400B093750040917200509173006091AB
:1001A0007400709175008091790090917A00A0910F
:1001B0007B00B0917C00481759076A077B0729F438
:1001C000C09A81E080937600C29A809172009091EB
:1001D0007300A0917400B0917500892B8A2B8B2B32
:1001E00039F1209160008091720090917300A0918C
:1001F0007400B09175004091790050917A0060913F
:100200007B0070917C00820F911DA11DB11D4817CC
:1002100059076A077B0760F0C098C2981092760071
:100220001092720010927300109274001092750078
:100230006091790070917A0080917B0090917C00B0
:1002400028E931E541E050E0A5D060937900709352
:100250007A0080937B0090937C00FF91EF91BF9197
:10026000AF919F918F917F916F915F914F913F914E
:100270002F910F900FBE0F901F901895B89AC098AD
:10028000B998C19A85B7826085BF8BB780648BBFF0
:1002900087B3877E87BB86B1876086B984B3886160
:1002A00084BB12BE84E786BF89B7826089BF83B7EB
:1002B000816083BFBA9A85B7806285BF789480E0F9
:1002C00090E0DC0188248A9423E0922EA12CB12CAA
:1002D000C4E0D1E0C0907900D0907A00E0907B003B
:1002E000F0907C008C159D05AE05BF05B1F1C09066
:1002F0007900D0907A00E0907B00F0907C008091B3
:100300007700882331F0B19904C0D093780010921F
:10031000770083E099DEBC0180E090E027E330E0E5
:1003200040E050E01ED0A501940134D0F894DA01E9
:10033000C9010596A11DB11D80936000789482E0EB
:1003400083DE20917600211108C08932924020F08E
:1003500088B38C2788BB01C0C2988895D701C60195
:10036000B9CFEE27FF27AA27BB2708C0A20FB31FCC
:10037000E41FF51F220F331F441F551F96958795C5
:100380007795679598F37040A9F7009799F7BD01A5
:10039000CF010895A1E21A2EAA1BBB1BFD010DC0BF
:1003A000AA1FBB1FEE1FFF1FA217B307E407F50725
:1003B00020F0A21BB30BE40BF50B661F771F881F01
:1003C000991F1A9469F760957095809590959B0197
:0C03D000AC01BD01CF010895F894FFCFEF
:1003DC0005050000005A00000070620000CA6200AF
:0203EC0000000F
:00000001FF
